{
  "address": "0x4CD95BBf3FcD61278E2e1b96De952166229dfE5E",
  "abi": [
    {
      "inputs": [
        {
          "internalType": "contract IConfigurableRightsPool",
          "name": "self",
          "type": "IConfigurableRightsPool"
        },
        {
          "internalType": "contract IBPool",
          "name": "bPool",
          "type": "IBPool"
        },
        {
          "internalType": "uint256",
          "name": "poolAmountIn",
          "type": "uint256"
        },
        {
          "internalType": "uint256[]",
          "name": "minAmountsOut",
          "type": "uint256[]"
        }
      ],
      "name": "exitPool",
      "outputs": [
        {
          "internalType": "uint256",
          "name": "exitFee",
          "type": "uint256"
        },
        {
          "internalType": "uint256",
          "name": "pAiAfterExitFee",
          "type": "uint256"
        },
        {
          "internalType": "uint256[]",
          "name": "actualAmountsOut",
          "type": "uint256[]"
        }
      ],
      "stateMutability": "view",
      "type": "function"
    },
    {
      "inputs": [
        {
          "internalType": "contract IConfigurableRightsPool",
          "name": "self",
          "type": "IConfigurableRightsPool"
        },
        {
          "internalType": "contract IBPool",
          "name": "bPool",
          "type": "IBPool"
        },
        {
          "internalType": "address",
          "name": "tokenOut",
          "type": "address"
        },
        {
          "internalType": "uint256",
          "name": "tokenAmountOut",
          "type": "uint256"
        },
        {
          "internalType": "uint256",
          "name": "maxPoolAmountIn",
          "type": "uint256"
        }
      ],
      "name": "exitswapExternAmountOut",
      "outputs": [
        {
          "internalType": "uint256",
          "name": "exitFee",
          "type": "uint256"
        },
        {
          "internalType": "uint256",
          "name": "poolAmountIn",
          "type": "uint256"
        }
      ],
      "stateMutability": "view",
      "type": "function"
    },
    {
      "inputs": [
        {
          "internalType": "contract IConfigurableRightsPool",
          "name": "self",
          "type": "IConfigurableRightsPool"
        },
        {
          "internalType": "contract IBPool",
          "name": "bPool",
          "type": "IBPool"
        },
        {
          "internalType": "address",
          "name": "tokenOut",
          "type": "address"
        },
        {
          "internalType": "uint256",
          "name": "poolAmountIn",
          "type": "uint256"
        },
        {
          "internalType": "uint256",
          "name": "minAmountOut",
          "type": "uint256"
        }
      ],
      "name": "exitswapPoolAmountIn",
      "outputs": [
        {
          "internalType": "uint256",
          "name": "exitFee",
          "type": "uint256"
        },
        {
          "internalType": "uint256",
          "name": "tokenAmountOut",
          "type": "uint256"
        }
      ],
      "stateMutability": "view",
      "type": "function"
    },
    {
      "inputs": [
        {
          "internalType": "contract IConfigurableRightsPool",
          "name": "self",
          "type": "IConfigurableRightsPool"
        },
        {
          "internalType": "contract IBPool",
          "name": "bPool",
          "type": "IBPool"
        },
        {
          "internalType": "uint256",
          "name": "poolAmountOut",
          "type": "uint256"
        },
        {
          "internalType": "uint256[]",
          "name": "maxAmountsIn",
          "type": "uint256[]"
        }
      ],
      "name": "joinPool",
      "outputs": [
        {
          "internalType": "uint256[]",
          "name": "actualAmountsIn",
          "type": "uint256[]"
        }
      ],
      "stateMutability": "view",
      "type": "function"
    },
    {
      "inputs": [
        {
          "internalType": "contract IConfigurableRightsPool",
          "name": "self",
          "type": "IConfigurableRightsPool"
        },
        {
          "internalType": "contract IBPool",
          "name": "bPool",
          "type": "IBPool"
        },
        {
          "internalType": "address",
          "name": "tokenIn",
          "type": "address"
        },
        {
          "internalType": "uint256",
          "name": "tokenAmountIn",
          "type": "uint256"
        },
        {
          "internalType": "uint256",
          "name": "minPoolAmountOut",
          "type": "uint256"
        }
      ],
      "name": "joinswapExternAmountIn",
      "outputs": [
        {
          "internalType": "uint256",
          "name": "poolAmountOut",
          "type": "uint256"
        }
      ],
      "stateMutability": "view",
      "type": "function"
    },
    {
      "inputs": [
        {
          "internalType": "contract IConfigurableRightsPool",
          "name": "self",
          "type": "IConfigurableRightsPool"
        },
        {
          "internalType": "contract IBPool",
          "name": "bPool",
          "type": "IBPool"
        },
        {
          "internalType": "address",
          "name": "tokenIn",
          "type": "address"
        },
        {
          "internalType": "uint256",
          "name": "poolAmountOut",
          "type": "uint256"
        },
        {
          "internalType": "uint256",
          "name": "maxAmountIn",
          "type": "uint256"
        }
      ],
      "name": "joinswapPoolAmountOut",
      "outputs": [
        {
          "internalType": "uint256",
          "name": "tokenAmountIn",
          "type": "uint256"
        }
      ],
      "stateMutability": "view",
      "type": "function"
    }
  ],
  "transactionHash": "0x72dbd26d6260dc2e85d2685d1af7ba49e0583db422bfa6532609ec35b66ec798",
  "args": [],
  "solcInputHash": "44256da70cc812bee6154882727baa12",
  "bytecode": "0x61417a610026600b82828239805160001a60731461001957fe5b30600052607381538281f3fe73000000000000000000000000000000000000000030146080604052600436106100f45760003560e01c806382495b4511610096578063d505a94e11610070578063d505a94e14610247578063df90de0b1461025a578063efa587741461026d578063f544aa1c1461028d576100f4565b806382495b45146101e7578063a1925f1d14610207578063b489ec1914610227576100f4565b80635471c3e4116100d25780635471c3e41461015b5780636a6dc6e714610186578063724a2d53146101a657806377d44349146101c7576100f4565b80630970e47f146100f957806313b8bf241461011b5780631c1af1361461013b575b600080fd5b81801561010557600080fd5b5061011961011436600461380d565b6102ad565b005b81801561012757600080fd5b50610119610136366004613798565b610786565b81801561014757600080fd5b506101196101563660046135da565b610a78565b61016e610169366004613901565b610a84565b60405161017d939291906140c1565b60405180910390f35b6101996101943660046138a7565b610d5d565b60405161017d91906140aa565b6101b96101b43660046138a7565b6111b2565b60405161017d9291906140b3565b8180156101d357600080fd5b506101196101e2366004613612565b611615565b8180156101f357600080fd5b5061011961020236600461376d565b611656565b61021a610215366004613901565b6119d8565b60405161017d9190613a95565b81801561023357600080fd5b5061011961024236600461371d565b611c93565b6101b96102553660046138a7565b611ea4565b6101996102683660046138a7565b612280565b81801561027957600080fd5b50610119610288366004613972565b612651565b81801561029957600080fd5b506101196102a8366004613857565b612a27565b6000836001600160a01b03166318160ddd6040518163ffffffff1660e01b815260040160206040518083038186803b1580156102e857600080fd5b505afa1580156102fc573d6000803e3d6000fd5b505050506040513d601f19601f8201168201806040525081019061032091906139b7565b905060006104226103ac83866001600160a01b031663948d8ce6876040518263ffffffff1660e01b81526004016103579190613a09565b60206040518083038186803b15801561036f57600080fd5b505afa158015610383573d6000803e3d6000fd5b505050506040513d601f19601f820116820180604052508101906103a791906139b7565b613112565b856001600160a01b031663936c34776040518163ffffffff1660e01b815260040160206040518083038186803b1580156103e557600080fd5b505afa1580156103f9573d6000803e3d6000fd5b505050506040513d601f19601f8201168201806040525081019061041d91906139b7565b613191565b90506000846001600160a01b031663f8b2cb4f856040518263ffffffff1660e01b81526004016104529190613a09565b60206040518083038186803b15801561046a57600080fd5b505afa15801561047e573d6000803e3d6000fd5b505050506040513d601f19601f820116820180604052508101906104a291906139b7565b6040517fcf5e7bd30000000000000000000000000000000000000000000000000000000081529091506001600160a01b0386169063cf5e7bd3906104ea908790600401613a09565b600060405180830381600087803b15801561050457600080fd5b505af1158015610518573d6000803e3d6000fd5b505050506000846001600160a01b031663a9059cbb886001600160a01b0316633018205f6040518163ffffffff1660e01b815260040160206040518083038186803b15801561056657600080fd5b505afa15801561057a573d6000803e3d6000fd5b505050506040513d601f19601f8201168201806040525081019061059e91906135f6565b846040518363ffffffff1660e01b81526004016105bc929190613a41565b602060405180830381600087803b1580156105d657600080fd5b505af11580156105ea573d6000803e3d6000fd5b505050506040513d601f19601f8201168201806040525081019061060e91906136fd565b9050806106365760405162461bcd60e51b815260040161062d90614005565b60405180910390fd5b866001600160a01b03166355c32a23886001600160a01b0316633018205f6040518163ffffffff1660e01b815260040160206040518083038186803b15801561067e57600080fd5b505afa158015610692573d6000803e3d6000fd5b505050506040513d601f19601f820116820180604052508101906106b691906135f6565b856040518363ffffffff1660e01b81526004016106d4929190613a41565b600060405180830381600087803b1580156106ee57600080fd5b505af1158015610702573d6000803e3d6000fd5b50506040517f220eb7600000000000000000000000000000000000000000000000000000000081526001600160a01b038a16925063220eb760915061074b9086906004016140aa565b600060405180830381600087803b15801561076557600080fd5b505af1158015610779573d6000803e3d6000fd5b5050505050505050505050565b8143106107a55760405162461bcd60e51b815260040161062d90613adf565b824311156107b5574386556107b9565b8286555b806107c8838860000154613222565b10156107e65760405162461bcd60e51b815260040161062d90613b16565b6060876001600160a01b031663cc77828d6040518163ffffffff1660e01b815260040160006040518083038186803b15801561082157600080fd5b505afa158015610835573d6000803e3d6000fd5b505050506040513d6000823e601f3d908101601f1916820160405261085d9190810190613652565b805190915085146108805760405162461bcd60e51b815260040161062d90613b4b565b6000815167ffffffffffffffff8111801561089a57600080fd5b506040519080825280602002602001820160405280156108c4578160200160208202803683370190505b5080516108db9160028b01916020909101906134f2565b5060005b8251811015610a2d576802b5e3af16b18800008888838181106108fe57fe5b9050602002013511156109235760405162461bcd60e51b815260040161062d90613ebb565b670de0b6b3a764000088888381811061093857fe5b90506020020135101561095d5760405162461bcd60e51b815260040161062d90613ddf565b6109798289898481811061096d57fe5b9050602002013561325b565b9150896001600160a01b031663948d8ce684838151811061099657fe5b60200260200101516040518263ffffffff1660e01b81526004016109ba9190613a09565b60206040518083038186803b1580156109d257600080fd5b505afa1580156109e6573d6000803e3d6000fd5b505050506040513d601f19601f82011682018060405250810190610a0a91906139b7565b896002018281548110610a1957fe5b6000918252602090912001556001016108df565b506802b5e3af16b1880000811115610a575760405162461bcd60e51b815260040161062d90613c5e565b60018801849055610a6c60038901888861353d565b50505050505050505050565b610a8181613287565b50565b600080606080876001600160a01b031663cc77828d6040518163ffffffff1660e01b815260040160006040518083038186803b158015610ac357600080fd5b505afa158015610ad7573d6000803e3d6000fd5b505050506040513d6000823e601f3d908101601f19168201604052610aff9190810190613652565b80519091508514610b225760405162461bcd60e51b815260040161062d90613c95565b6000896001600160a01b03166318160ddd6040518163ffffffff1660e01b815260040160206040518083038186803b158015610b5d57600080fd5b505afa158015610b71573d6000803e3d6000fd5b505050506040513d601f19601f82011682018060405250810190610b9591906139b7565b9050610ba2886000613112565b9450610bae8886613222565b93506000610bc18561041d84600161325b565b905080610be05760405162461bcd60e51b815260040161062d90613bf0565b825167ffffffffffffffff81118015610bf857600080fd5b50604051908082528060200260200182016040528015610c22578160200160208202803683370190505b50935060005b8351811015610d4e576000848281518110610c3f57fe5b6020026020010151905060008c6001600160a01b031663f8b2cb4f836040518263ffffffff1660e01b8152600401610c779190613a09565b60206040518083038186803b158015610c8f57600080fd5b505afa158015610ca3573d6000803e3d6000fd5b505050506040513d601f19601f82011682018060405250810190610cc791906139b7565b90506000610cda856103a7846001613222565b905080610cf95760405162461bcd60e51b815260040161062d90613bf0565b8b8b85818110610d0557fe5b90506020020135811015610d2b5760405162461bcd60e51b815260040161062d90613ccc565b80888581518110610d3857fe5b6020908102919091010152505050600101610c28565b50505050955095509592505050565b604051630bcded8960e21b81526000906001600160a01b03861690632f37b62490610d8c908790600401613a09565b60206040518083038186803b158015610da457600080fd5b505afa158015610db8573d6000803e3d6000fd5b505050506040513d601f19601f82011682018060405250810190610ddc91906136fd565b610df85760405162461bcd60e51b815260040161062d90613e4d565b60405163f8b2cb4f60e01b81526001600160a01b03861690635c1bbaf790829063f8b2cb4f90610e2c908990600401613a09565b60206040518083038186803b158015610e4457600080fd5b505afa158015610e58573d6000803e3d6000fd5b505050506040513d601f19601f82011682018060405250810190610e7c91906139b7565b604051634a46c67360e11b81526001600160a01b0389169063948d8ce690610ea8908a90600401613a09565b60206040518083038186803b158015610ec057600080fd5b505afa158015610ed4573d6000803e3d6000fd5b505050506040513d601f19601f82011682018060405250810190610ef891906139b7565b896001600160a01b03166318160ddd6040518163ffffffff1660e01b815260040160206040518083038186803b158015610f3157600080fd5b505afa158015610f45573d6000803e3d6000fd5b505050506040513d601f19601f82011682018060405250810190610f6991906139b7565b896001600160a01b031663936c34776040518163ffffffff1660e01b815260040160206040518083038186803b158015610fa257600080fd5b505afa158015610fb6573d6000803e3d6000fd5b505050506040513d601f19601f82011682018060405250810190610fda91906139b7565b888b6001600160a01b031663d4cadf686040518163ffffffff1660e01b815260040160206040518083038186803b15801561101457600080fd5b505afa158015611028573d6000803e3d6000fd5b505050506040513d601f19601f8201168201806040525081019061104c91906139b7565b6040518763ffffffff1660e01b815260040161106d969594939291906140e0565b60206040518083038186803b15801561108557600080fd5b505afa158015611099573d6000803e3d6000fd5b505050506040513d601f19601f820116820180604052508101906110bd91906139b7565b9050806110dc5760405162461bcd60e51b815260040161062d90613bf0565b818111156110fc5760405162461bcd60e51b815260040161062d90613da8565b60405163f8b2cb4f60e01b815261118a906001600160a01b0387169063f8b2cb4f9061112c908890600401613a09565b60206040518083038186803b15801561114457600080fd5b505afa158015611158573d6000803e3d6000fd5b505050506040513d601f19601f8201168201806040525081019061117c91906139b7565b6706f05b59d3b20000613112565b8111156111a95760405162461bcd60e51b815260040161062d90613bb9565b95945050505050565b600080856001600160a01b0316632f37b624866040518263ffffffff1660e01b81526004016111e19190613a09565b60206040518083038186803b1580156111f957600080fd5b505afa15801561120d573d6000803e3d6000fd5b505050506040513d601f19601f8201168201806040525081019061123191906136fd565b61124d5760405162461bcd60e51b815260040161062d90613e4d565b60405163f8b2cb4f60e01b81526112db906001600160a01b0388169063f8b2cb4f9061127d908990600401613a09565b60206040518083038186803b15801561129557600080fd5b505afa1580156112a9573d6000803e3d6000fd5b505050506040513d601f19601f820116820180604052508101906112cd91906139b7565b6704a03ce68d215556613112565b8411156112fa5760405162461bcd60e51b815260040161062d90613e16565b60405163f8b2cb4f60e01b81526001600160a01b038716906382f652ad90829063f8b2cb4f9061132e908a90600401613a09565b60206040518083038186803b15801561134657600080fd5b505afa15801561135a573d6000803e3d6000fd5b505050506040513d601f19601f8201168201806040525081019061137e91906139b7565b604051634a46c67360e11b81526001600160a01b038a169063948d8ce6906113aa908b90600401613a09565b60206040518083038186803b1580156113c257600080fd5b505afa1580156113d6573d6000803e3d6000fd5b505050506040513d601f19601f820116820180604052508101906113fa91906139b7565b8a6001600160a01b03166318160ddd6040518163ffffffff1660e01b815260040160206040518083038186803b15801561143357600080fd5b505afa158015611447573d6000803e3d6000fd5b505050506040513d601f19601f8201168201806040525081019061146b91906139b7565b8a6001600160a01b031663936c34776040518163ffffffff1660e01b815260040160206040518083038186803b1580156114a457600080fd5b505afa1580156114b8573d6000803e3d6000fd5b505050506040513d601f19601f820116820180604052508101906114dc91906139b7565b898c6001600160a01b031663d4cadf686040518163ffffffff1660e01b815260040160206040518083038186803b15801561151657600080fd5b505afa15801561152a573d6000803e3d6000fd5b505050506040513d601f19601f8201168201806040525081019061154e91906139b7565b6040518763ffffffff1660e01b815260040161156f969594939291906140e0565b60206040518083038186803b15801561158757600080fd5b505afa15801561159b573d6000803e3d6000fd5b505050506040513d601f19601f820116820180604052508101906115bf91906139b7565b9050806115de5760405162461bcd60e51b815260040161062d90613bf0565b828111156115fe5760405162461bcd60e51b815260040161062d90613da8565b611609816000613112565b91509550959350505050565b60005b818110156116515761164983838381811061162f57fe5b905060200201602081019061164491906135da565b613287565b600101611618565b505050565b8054611661576119d4565b80544310156116825760405162461bcd60e51b815260040161062d90613d3a565b6000816001015443111561169b5750600181015461169e565b50435b60006116b283600101548460000154613222565b905060006116c4838560000154613222565b905060008060006060886001600160a01b031663cc77828d6040518163ffffffff1660e01b815260040160006040518083038186803b15801561170657600080fd5b505afa15801561171a573d6000803e3d6000fd5b505050506040513d6000823e601f3d908101601f191682016040526117429190810190613652565b905060005b81518110156119bb5788600301818154811061175f57fe5b906000526020600020015489600201828154811061177957fe5b9060005260206000200154146119b35788600201818154811061179857fe5b90600052602060002001548960030182815481106117b257fe5b90600052602060002001541015611840576117ff8960020182815481106117d557fe5b90600052602060002001548a60030183815481106117ef57fe5b9060005260206000200154613222565b945061180b8588613191565b935061183989600201828154811061181f57fe5b90600052602060002001546118348887613112565b613222565b92506118a9565b61186c89600301828154811061185257fe5b90600052602060002001548a60020183815481106117ef57fe5b94506118788588613191565b93506118a689600201828154811061188c57fe5b90600052602060002001546118a18887613112565b61325b565b92505b60008a6001600160a01b031663f8b2cb4f8484815181106118c657fe5b60200260200101516040518263ffffffff1660e01b81526004016118ea9190613a09565b60206040518083038186803b15801561190257600080fd5b505afa158015611916573d6000803e3d6000fd5b505050506040513d601f19601f8201168201806040525081019061193a91906139b7565b90508a6001600160a01b0316633fdddaa284848151811061195757fe5b602002602001015183876040518463ffffffff1660e01b815260040161197f93929190613a74565b600060405180830381600087803b15801561199957600080fd5b505af11580156119ad573d6000803e3d6000fd5b50505050505b600101611747565b50876001015443106119cc57600088555b505050505050505b5050565b606080856001600160a01b031663cc77828d6040518163ffffffff1660e01b815260040160006040518083038186803b158015611a1457600080fd5b505afa158015611a28573d6000803e3d6000fd5b505050506040513d6000823e601f3d908101601f19168201604052611a509190810190613652565b80519091508314611a735760405162461bcd60e51b815260040161062d90613c95565b6000876001600160a01b03166318160ddd6040518163ffffffff1660e01b815260040160206040518083038186803b158015611aae57600080fd5b505afa158015611ac2573d6000803e3d6000fd5b505050506040513d601f19601f82011682018060405250810190611ae691906139b7565b90506000611af98761041d846001613222565b905080611b185760405162461bcd60e51b815260040161062d90613bf0565b825167ffffffffffffffff81118015611b3057600080fd5b50604051908082528060200260200182016040528015611b5a578160200160208202803683370190505b50935060005b8351811015611c86576000848281518110611b7757fe5b6020026020010151905060008a6001600160a01b031663f8b2cb4f836040518263ffffffff1660e01b8152600401611baf9190613a09565b60206040518083038186803b158015611bc757600080fd5b505afa158015611bdb573d6000803e3d6000fd5b505050506040513d601f19601f82011682018060405250810190611bff91906139b7565b90506000611c12856103a784600161325b565b905080611c315760405162461bcd60e51b815260040161062d90613bf0565b898985818110611c3d57fe5b90506020020135811115611c635760405162461bcd60e51b815260040161062d90613da8565b80888581518110611c7057fe5b6020908102919091010152505050600101611b60565b5050505095945050505050565b604051630bcded8960e21b81526001600160a01b03861690632f37b62490611cbf908790600401613a09565b60206040518083038186803b158015611cd757600080fd5b505afa158015611ceb573d6000803e3d6000fd5b505050506040513d601f19601f82011682018060405250810190611d0f91906136fd565b15611d2c5760405162461bcd60e51b815260040161062d90613b82565b6802b5e3af16b1880000821115611d555760405162461bcd60e51b815260040161062d90613ebb565b670de0b6b3a7640000821015611d7d5760405162461bcd60e51b815260040161062d90613ddf565b670de0b6b3a7640000603202611e03866001600160a01b031663936c34776040518163ffffffff1660e01b815260040160206040518083038186803b158015611dc557600080fd5b505afa158015611dd9573d6000803e3d6000fd5b505050506040513d601f19601f82011682018060405250810190611dfd91906139b7565b8461325b565b1115611e215760405162461bcd60e51b815260040161062d90613c5e565b64e8d4a51000831015611e465760405162461bcd60e51b815260040161062d90613fce565b805460038201939093556002810191909155436001820155600160a01b7fffffffffffffffffffffffff00000000000000000000000000000000000000009092166001600160a01b03939093169290921760ff60a01b191617905550565b600080856001600160a01b0316632f37b624866040518263ffffffff1660e01b8152600401611ed39190613a09565b60206040518083038186803b158015611eeb57600080fd5b505afa158015611eff573d6000803e3d6000fd5b505050506040513d601f19601f82011682018060405250810190611f2391906136fd565b611f3f5760405162461bcd60e51b815260040161062d90613e4d565b60405163f8b2cb4f60e01b81526001600160a01b03871690638929801290829063f8b2cb4f90611f73908a90600401613a09565b60206040518083038186803b158015611f8b57600080fd5b505afa158015611f9f573d6000803e3d6000fd5b505050506040513d601f19601f82011682018060405250810190611fc391906139b7565b604051634a46c67360e11b81526001600160a01b038a169063948d8ce690611fef908b90600401613a09565b60206040518083038186803b15801561200757600080fd5b505afa15801561201b573d6000803e3d6000fd5b505050506040513d601f19601f8201168201806040525081019061203f91906139b7565b8a6001600160a01b03166318160ddd6040518163ffffffff1660e01b815260040160206040518083038186803b15801561207857600080fd5b505afa15801561208c573d6000803e3d6000fd5b505050506040513d601f19601f820116820180604052508101906120b091906139b7565b8a6001600160a01b031663936c34776040518163ffffffff1660e01b815260040160206040518083038186803b1580156120e957600080fd5b505afa1580156120fd573d6000803e3d6000fd5b505050506040513d601f19601f8201168201806040525081019061212191906139b7565b898c6001600160a01b031663d4cadf686040518163ffffffff1660e01b815260040160206040518083038186803b15801561215b57600080fd5b505afa15801561216f573d6000803e3d6000fd5b505050506040513d601f19601f8201168201806040525081019061219391906139b7565b6040518763ffffffff1660e01b81526004016121b4969594939291906140e0565b60206040518083038186803b1580156121cc57600080fd5b505afa1580156121e0573d6000803e3d6000fd5b505050506040513d601f19601f8201168201806040525081019061220491906139b7565b9050828110156122265760405162461bcd60e51b815260040161062d90613ccc565b60405163f8b2cb4f60e01b8152612256906001600160a01b0388169063f8b2cb4f9061127d908990600401613a09565b8111156122755760405162461bcd60e51b815260040161062d90613e16565b611609846000613112565b604051630bcded8960e21b81526000906001600160a01b03861690632f37b624906122af908790600401613a09565b60206040518083038186803b1580156122c757600080fd5b505afa1580156122db573d6000803e3d6000fd5b505050506040513d601f19601f820116820180604052508101906122ff91906136fd565b61231b5760405162461bcd60e51b815260040161062d90613e4d565b60405163f8b2cb4f60e01b815261234b906001600160a01b0387169063f8b2cb4f9061112c908890600401613a09565b83111561236a5760405162461bcd60e51b815260040161062d90613bb9565b60405163f8b2cb4f60e01b81526001600160a01b03861690638656b65390829063f8b2cb4f9061239e908990600401613a09565b60206040518083038186803b1580156123b657600080fd5b505afa1580156123ca573d6000803e3d6000fd5b505050506040513d601f19601f820116820180604052508101906123ee91906139b7565b604051634a46c67360e11b81526001600160a01b0389169063948d8ce69061241a908a90600401613a09565b60206040518083038186803b15801561243257600080fd5b505afa158015612446573d6000803e3d6000fd5b505050506040513d601f19601f8201168201806040525081019061246a91906139b7565b896001600160a01b03166318160ddd6040518163ffffffff1660e01b815260040160206040518083038186803b1580156124a357600080fd5b505afa1580156124b7573d6000803e3d6000fd5b505050506040513d601f19601f820116820180604052508101906124db91906139b7565b896001600160a01b031663936c34776040518163ffffffff1660e01b815260040160206040518083038186803b15801561251457600080fd5b505afa158015612528573d6000803e3d6000fd5b505050506040513d601f19601f8201168201806040525081019061254c91906139b7565b888b6001600160a01b031663d4cadf686040518163ffffffff1660e01b815260040160206040518083038186803b15801561258657600080fd5b505afa15801561259a573d6000803e3d6000fd5b505050506040513d601f19601f820116820180604052508101906125be91906139b7565b6040518763ffffffff1660e01b81526004016125df969594939291906140e0565b60206040518083038186803b1580156125f757600080fd5b505afa15801561260b573d6000803e3d6000fd5b505050506040513d601f19601f8201168201806040525081019061262f91906139b7565b9050818110156111a95760405162461bcd60e51b815260040161062d90613ccc565b8054600160a01b900460ff166126795760405162461bcd60e51b815260040161062d90613aa8565b81612688438360010154613222565b10156126a65760405162461bcd60e51b815260040161062d90613ef2565b6000846001600160a01b03166318160ddd6040518163ffffffff1660e01b815260040160206040518083038186803b1580156126e157600080fd5b505afa1580156126f5573d6000803e3d6000fd5b505050506040513d601f19601f8201168201806040525081019061271991906139b7565b9050600061276761272e838560020154613112565b866001600160a01b031663936c34776040518163ffffffff1660e01b815260040160206040518083038186803b1580156103e557600080fd5b835460ff60a01b1981168555604080517f3018205f00000000000000000000000000000000000000000000000000000000815290519293506000926001600160a01b03928316926323b872dd92908b1691633018205f91600480820192602092909190829003018186803b1580156127de57600080fd5b505afa1580156127f2573d6000803e3d6000fd5b505050506040513d601f19601f8201168201806040525081019061281691906135f6565b8987600301546040518463ffffffff1660e01b815260040161283a93929190613a1d565b602060405180830381600087803b15801561285457600080fd5b505af1158015612868573d6000803e3d6000fd5b505050506040513d601f19601f8201168201806040525081019061288c91906136fd565b9050806128ab5760405162461bcd60e51b815260040161062d90614005565b83546128c3906001600160a01b031687600019613329565b9050806128e25760405162461bcd60e51b815260040161062d90614005565b8354600385015460028601546040517fe4e1e5380000000000000000000000000000000000000000000000000000000081526001600160a01b03808b169463e4e1e53894612937949190921692600401613a74565b600060405180830381600087803b15801561295157600080fd5b505af1158015612965573d6000803e3d6000fd5b50506040517f4ba578820000000000000000000000000000000000000000000000000000000081526001600160a01b038a169250634ba5788291506129ae9085906004016140aa565b600060405180830381600087803b1580156129c857600080fd5b505af11580156129dc573d6000803e3d6000fd5b50506040517f095dcccc0000000000000000000000000000000000000000000000000000000081526001600160a01b038a16925063095dcccc915061074b9033908690600401613a41565b670de0b6b3a7640000811015612a4f5760405162461bcd60e51b815260040161062d90613e84565b6802b5e3af16b1880000811115612a785760405162461bcd60e51b815260040161062d90613c27565b604051634a46c67360e11b81526000906001600160a01b0385169063948d8ce690612aa7908690600401613a09565b60206040518083038186803b158015612abf57600080fd5b505afa158015612ad3573d6000803e3d6000fd5b505050506040513d601f19601f82011682018060405250810190612af791906139b7565b905081811415612b07575061310c565b60405163f8b2cb4f60e01b81526000906001600160a01b0386169063f8b2cb4f90612b36908790600401613a09565b60206040518083038186803b158015612b4e57600080fd5b505afa158015612b62573d6000803e3d6000fd5b505050506040513d601f19601f82011682018060405250810190612b8691906139b7565b90506000866001600160a01b03166318160ddd6040518163ffffffff1660e01b815260040160206040518083038186803b158015612bc357600080fd5b505afa158015612bd7573d6000803e3d6000fd5b505050506040513d601f19601f82011682018060405250810190612bfb91906139b7565b90506000866001600160a01b031663936c34776040518163ffffffff1660e01b815260040160206040518083038186803b158015612c3857600080fd5b505afa158015612c4c573d6000803e3d6000fd5b505050506040513d601f19601f82011682018060405250810190612c7091906139b7565b905060008060008087891015612ed757612c8a888a613222565b9150612c9a866103a78488613191565b9350612caa876103a7848b613191565b9250612cb68784613222565b905064e8d4a51000811015612cdd5760405162461bcd60e51b815260040161062d90613d03565b6040517f3fdddaa20000000000000000000000000000000000000000000000000000000081526001600160a01b038c1690633fdddaa290612d26908d9085908e90600401613a74565b600060405180830381600087803b158015612d4057600080fd5b505af1158015612d54573d6000803e3d6000fd5b505060405163a9059cbb60e01b8152600092506001600160a01b038d16915063a9059cbb90612d899033908890600401613a41565b602060405180830381600087803b158015612da357600080fd5b505af1158015612db7573d6000803e3d6000fd5b505050506040513d601f19601f82011682018060405250810190612ddb91906136fd565b905080612dfa5760405162461bcd60e51b815260040161062d90614005565b6040517f55c32a230000000000000000000000000000000000000000000000000000000081526001600160a01b038e16906355c32a2390612e419033908990600401613a41565b600060405180830381600087803b158015612e5b57600080fd5b505af1158015612e6f573d6000803e3d6000fd5b505050508c6001600160a01b031663220eb760866040518263ffffffff1660e01b8152600401612e9f91906140aa565b600060405180830381600087803b158015612eb957600080fd5b505af1158015612ecd573d6000803e3d6000fd5b5050505050613103565b612ee18989613222565b91506802b5e3af16b1880000612ef7868461325b565b1115612f155760405162461bcd60e51b815260040161062d90613c5e565b612f23866103a78488613191565b9350612f33876103a7848b613191565b925060008a6001600160a01b03166323b872dd3330876040518463ffffffff1660e01b8152600401612f6793929190613a1d565b602060405180830381600087803b158015612f8157600080fd5b505af1158015612f95573d6000803e3d6000fd5b505050506040513d601f19601f82011682018060405250810190612fb991906136fd565b905080612fd85760405162461bcd60e51b815260040161062d90614005565b8b6001600160a01b0316633fdddaa28c612ff28b8861325b565b8d6040518463ffffffff1660e01b815260040161301193929190613a74565b600060405180830381600087803b15801561302b57600080fd5b505af115801561303f573d6000803e3d6000fd5b505050508c6001600160a01b0316634ba57882866040518263ffffffff1660e01b815260040161306f91906140aa565b600060405180830381600087803b15801561308957600080fd5b505af115801561309d573d6000803e3d6000fd5b505050508c6001600160a01b031663095dcccc33876040518363ffffffff1660e01b81526004016130cf929190613a41565b600060405180830381600087803b1580156130e957600080fd5b505af11580156130fd573d6000803e3d6000fd5b50505050505b50505050505050505b50505050565b6000826131215750600061318b565b8282028284828161312e57fe5b041461314c5760405162461bcd60e51b815260040161062d90613f29565b6706f05b59d3b200008101818110156131775760405162461bcd60e51b815260040161062d90613f29565b6000670de0b6b3a7640000825b0493505050505b92915050565b6000816131b05760405162461bcd60e51b815260040161062d90613f97565b826131bd5750600061318b565b670de0b6b3a7640000838102908482816131d357fe5b04146131f15760405162461bcd60e51b815260040161062d90613d71565b600283048101818110156132175760405162461bcd60e51b815260040161062d90613d71565b600084828161318457fe5b600080600061323185856134cd565b9150915080156132535760405162461bcd60e51b815260040161062d9061403c565b509392505050565b6000828201838110156132805760405162461bcd60e51b815260040161062d90614073565b9392505050565b60405163a9059cbb60e01b81526000906001600160a01b0383169063a9059cbb906132b89033908590600401613a41565b602060405180830381600087803b1580156132d257600080fd5b505af11580156132e6573d6000803e3d6000fd5b505050506040513d601f19601f8201168201806040525081019061330a91906136fd565b9050806119d45760405162461bcd60e51b815260040161062d90613f60565b600080846001600160a01b031663dd62ed3e30866040518363ffffffff1660e01b815260040161335a929190613a5a565b60206040518083038186803b15801561337257600080fd5b505afa158015613386573d6000803e3d6000fd5b505050506040513d601f19601f820116820180604052508101906133aa91906139b7565b9050828114156133be576001915050613280565b801561344d5760405163095ea7b360e01b81526001600160a01b0386169063095ea7b3906133f3908790600090600401613a41565b602060405180830381600087803b15801561340d57600080fd5b505af1158015613421573d6000803e3d6000fd5b505050506040513d601f19601f8201168201806040525081019061344591906136fd565b915050613280565b60405163095ea7b360e01b81526001600160a01b0386169063095ea7b39061347b9087908790600401613a41565b602060405180830381600087803b15801561349557600080fd5b505af11580156134a9573d6000803e3d6000fd5b505050506040513d601f19601f820116820180604052508101906111a991906136fd565b6000808383116134e357505080820360006134eb565b505081810360015b9250929050565b82805482825590600052602060002090810192821561352d579160200282015b8281111561352d578251825591602001919060010190613512565b50613539929150613578565b5090565b82805482825590600052602060002090810192821561352d579160200282015b8281111561352d57823582559160200191906001019061355d565b5b808211156135395760008155600101613579565b805161318b8161412f565b60008083601f8401126135a9578182fd5b50813567ffffffffffffffff8111156135c0578182fd5b60208301915083602080830285010111156134eb57600080fd5b6000602082840312156135eb578081fd5b81356132808161412f565b600060208284031215613607578081fd5b81516132808161412f565b60008060208385031215613624578081fd5b823567ffffffffffffffff81111561363a578182fd5b61364685828601613598565b90969095509350505050565b60006020808385031215613664578182fd5b825167ffffffffffffffff8082111561367b578384fd5b818501915085601f83011261368e578384fd5b81518181111561369c578485fd5b83810291506136ac848301614108565b8181528481019084860184860187018a10156136c6578788fd5b8795505b838610156136f0576136dc8a8261358d565b8352600195909501949186019186016136ca565b5098975050505050505050565b60006020828403121561370e578081fd5b81518015158114613280578182fd5b600080600080600060a08688031215613734578081fd5b853561373f8161412f565b9450602086013561374f8161412f565b94979496505050506040830135926060810135926080909101359150565b6000806040838503121561377f578182fd5b823561378a8161412f565b946020939093013593505050565b600080600080600080600060c0888a0312156137b2578182fd5b87356137bd8161412f565b965060208801359550604088013567ffffffffffffffff8111156137df578283fd5b6137eb8a828b01613598565b989b979a50986060810135976080820135975060a09091013595509350505050565b600080600060608486031215613821578283fd5b833561382c8161412f565b9250602084013561383c8161412f565b9150604084013561384c8161412f565b809150509250925092565b6000806000806080858703121561386c578384fd5b84356138778161412f565b935060208501356138878161412f565b925060408501356138978161412f565b9396929550929360600135925050565b600080600080600060a086880312156138be578283fd5b85356138c98161412f565b945060208601356138d98161412f565b935060408601356138e98161412f565b94979396509394606081013594506080013592915050565b600080600080600060808688031215613918578283fd5b85356139238161412f565b945060208601356139338161412f565b935060408601359250606086013567ffffffffffffffff811115613955578182fd5b61396188828901613598565b969995985093965092949392505050565b60008060008060808587031215613987578182fd5b84356139928161412f565b935060208501356139a28161412f565b93969395505050506040820135916060013590565b6000602082840312156139c8578081fd5b5051919050565b6000815180845260208085019450808401835b838110156139fe578151875295820195908201906001016139e2565b509495945050505050565b6001600160a01b0391909116815260200190565b6001600160a01b039384168152919092166020820152604081019190915260600190565b6001600160a01b03929092168252602082015260400190565b6001600160a01b0392831681529116602082015260400190565b6001600160a01b039390931683526020830191909152604082015260600190565b60006020825261328060208301846139cf565b60208082526013908201527f4552525f4e4f5f544f4b454e5f434f4d4d495400000000000000000000000000604082015260600190565b6020808252601e908201527f4552525f4752414455414c5f5550444154455f54494d455f54524156454c0000604082015260600190565b6020808252818101527f4552525f5745494748545f4348414e47455f54494d455f42454c4f575f4d494e604082015260600190565b6020808252601a908201527f4552525f53544152545f574549474854535f4d49534d41544348000000000000604082015260600190565b6020808252600c908201527f4552525f49535f424f554e440000000000000000000000000000000000000000604082015260600190565b60208082526010908201527f4552525f4d41585f494e5f524154494f00000000000000000000000000000000604082015260600190565b6020808252600f908201527f4552525f4d4154485f415050524f580000000000000000000000000000000000604082015260600190565b6020808252600e908201527f4552525f4d41585f574549474854000000000000000000000000000000000000604082015260600190565b60208082526014908201527f4552525f4d41585f544f54414c5f574549474854000000000000000000000000604082015260600190565b60208082526014908201527f4552525f414d4f554e54535f4d49534d41544348000000000000000000000000604082015260600190565b6020808252600d908201527f4552525f4c494d49545f4f555400000000000000000000000000000000000000604082015260600190565b6020808252600f908201527f4552525f4d494e5f42414c414e43450000000000000000000000000000000000604082015260600190565b60208082526011908201527f4552525f43414e545f504f4b455f594554000000000000000000000000000000604082015260600190565b60208082526010908201527f4552525f4449565f494e5445524e414c00000000000000000000000000000000604082015260600190565b6020808252600c908201527f4552525f4c494d49545f494e0000000000000000000000000000000000000000604082015260600190565b60208082526014908201527f4552525f5745494748545f42454c4f575f4d494e000000000000000000000000604082015260600190565b60208082526011908201527f4552525f4d41585f4f55545f524154494f000000000000000000000000000000604082015260600190565b6020808252600d908201527f4552525f4e4f545f424f554e4400000000000000000000000000000000000000604082015260600190565b6020808252600e908201527f4552525f4d494e5f574549474854000000000000000000000000000000000000604082015260600190565b60208082526014908201527f4552525f5745494748545f41424f56455f4d4158000000000000000000000000604082015260600190565b6020808252601b908201527f4552525f54494d454c4f434b5f5354494c4c5f434f554e54494e470000000000604082015260600190565b60208082526010908201527f4552525f4d554c5f4f564552464c4f5700000000000000000000000000000000604082015260600190565b60208082526017908201527f4552525f4e4f4e434f4e464f524d494e475f544f4b454e000000000000000000604082015260600190565b6020808252600c908201527f4552525f4449565f5a45524f0000000000000000000000000000000000000000604082015260600190565b60208082526015908201527f4552525f42414c414e43455f42454c4f575f4d494e0000000000000000000000604082015260600190565b6020808252600f908201527f4552525f45524332305f46414c53450000000000000000000000000000000000604082015260600190565b60208082526011908201527f4552525f5355425f554e444552464c4f57000000000000000000000000000000604082015260600190565b60208082526010908201527f4552525f4144445f4f564552464c4f5700000000000000000000000000000000604082015260600190565b90815260200190565b918252602082015260400190565b6000848252836020830152606060408301526111a960608301846139cf565b958652602086019490945260408501929092526060840152608083015260a082015260c00190565b60405181810167ffffffffffffffff8111828210171561412757600080fd5b604052919050565b6001600160a01b0381168114610a8157600080fdfea2646970667358221220568ab577766f754330f320cb0357dbc986dedad7836293ea402553d013b0446964736f6c634300060c0033",
  "devdoc": {
    "author": "Buni Labs",
    "kind": "dev",
    "methods": {
      "applyAddToken(IConfigurableRightsPool,IBPool,uint256,SmartPoolManager.NewTokenParams storage)": {
        "params": {
          "addTokenTimeLockInBlocks": "-  Wait time between committing and applying a new token",
          "bPool": "- Core BPool the CRP is wrapping",
          "newToken": "- NewTokenParams struct used to hold the token data (in CRP storage)",
          "self": "- ConfigurableRightsPool instance calling the library"
        }
      },
      "commitAddToken(IBPool,address,uint256,uint256,SmartPoolManager.NewTokenParams storage)": {
        "params": {
          "bPool": "- Core BPool the CRP is wrapping",
          "balance": "- how much to be added",
          "denormalizedWeight": "- the desired token weight",
          "newToken": "- NewTokenParams struct used to hold the token data (in CRP storage)",
          "token": "- the token to be added"
        }
      },
      "exitPool(IConfigurableRightsPool,IBPool,uint256,uint256[])": {
        "params": {
          "bPool": "- Core BPool the CRP is wrapping",
          "minAmountsOut": "- minimum amount of asset tokens to receive",
          "poolAmountIn": "- amount of pool tokens to redeem",
          "self": "- ConfigurableRightsPool instance calling the library"
        },
        "returns": {
          "actualAmountsOut": "- calculated amounts of each token to pull",
          "exitFee": "- calculated exit fee",
          "pAiAfterExitFee": "- final amount in (after accounting for exit fee)"
        }
      },
      "exitswapExternAmountOut(IConfigurableRightsPool,IBPool,address,uint256,uint256)": {
        "params": {
          "bPool": "- Core BPool the CRP is wrapping",
          "maxPoolAmountIn": "- maximum pool tokens to be redeemed",
          "self": "- ConfigurableRightsPool instance calling the library",
          "tokenAmountOut": "- amount of underlying asset tokens to receive",
          "tokenOut": "- which token the caller wants to receive"
        },
        "returns": {
          "exitFee": "- calculated exit fee",
          "poolAmountIn": "- amount of pool tokens redeemed"
        }
      },
      "exitswapPoolAmountIn(IConfigurableRightsPool,IBPool,address,uint256,uint256)": {
        "params": {
          "bPool": "- Core BPool the CRP is wrapping",
          "minAmountOut": "- minimum asset tokens to receive",
          "poolAmountIn": "- amount of pool tokens to redeem",
          "self": "- ConfigurableRightsPool instance calling the library",
          "tokenOut": "- which token the caller wants to receive"
        },
        "returns": {
          "exitFee": "- calculated exit fee",
          "tokenAmountOut": "- amount of asset tokens returned"
        }
      },
      "joinPool(IConfigurableRightsPool,IBPool,uint256,uint256[])": {
        "params": {
          "bPool": "- Core BPool the CRP is wrapping",
          "maxAmountsIn": "- Max amount of asset tokens to spend",
          "poolAmountOut": "- number of pool tokens to receive",
          "self": "- ConfigurableRightsPool instance calling the library"
        },
        "returns": {
          "actualAmountsIn": "- calculated values of the tokens to pull in"
        }
      },
      "joinswapExternAmountIn(IConfigurableRightsPool,IBPool,address,uint256,uint256)": {
        "params": {
          "bPool": "- Core BPool the CRP is wrapping",
          "minPoolAmountOut": "- minimum of pool tokens to receive",
          "self": "- ConfigurableRightsPool instance calling the library",
          "tokenAmountIn": "- amount of deposit",
          "tokenIn": "- which token we're transferring in"
        },
        "returns": {
          "poolAmountOut": "- amount of pool tokens minted and transferred"
        }
      },
      "joinswapPoolAmountOut(IConfigurableRightsPool,IBPool,address,uint256,uint256)": {
        "params": {
          "bPool": "- Core BPool the CRP is wrapping",
          "maxAmountIn": "- Maximum asset tokens that can be pulled to pay for the pool tokens",
          "poolAmountOut": "- amount of pool tokens to be received",
          "self": "- ConfigurableRightsPool instance calling the library",
          "tokenIn": "- which token we're transferring in (system calculates amount required)"
        },
        "returns": {
          "tokenAmountIn": "- amount of asset tokens transferred in to purchase the pool tokens"
        }
      },
      "pokeWeights(IBPool,SmartPoolManager.GradualUpdateParams storage)": {
        "params": {
          "bPool": "- Core BPool the CRP is wrapping",
          "gradualUpdate": "- gradual update parameters from the CRP"
        }
      },
      "removeToken(IConfigurableRightsPool,IBPool,address)": {
        "details": "Logic in the CRP controls when ths can be called. There are two related permissions:      AddRemoveTokens - which allows removing down to the underlying BPool limit of two      RemoveAllTokens - which allows completely draining the pool by removing all tokens                        This can result in a non-viable pool with 0 or 1 tokens (by design),                        meaning all swapping or binding operations would fail in this state",
        "params": {
          "bPool": "- Core BPool the CRP is wrapping",
          "self": "- ConfigurableRightsPool instance calling the library",
          "token": "- token to remove"
        }
      },
      "updateWeight(IConfigurableRightsPool,IBPool,address,uint256)": {
        "details": "Refactored to library to make CRPFactory deployable",
        "params": {
          "bPool": "- Core BPool the CRP is wrapping",
          "newWeight": "- new weight of the token",
          "self": "- ConfigurableRightsPool instance calling the library",
          "token": "- token to be reweighted"
        }
      },
      "updateWeightsGradually(IBPool,SmartPoolManager.GradualUpdateParams storage,uint256[],uint256,uint256,uint256)": {
        "params": {
          "bPool": "- Core BPool the CRP is wrapping",
          "endBlock": "- when weights will be at their final values",
          "minimumWeightChangeBlockPeriod": "- needed to validate the block period",
          "newWeights": "- final weights we want to get to",
          "startBlock": "- when weights should start to change"
        }
      },
      "verifyTokenCompliance(address)": {
        "details": "Will revert if invalid",
        "params": {
          "token": "- The prospective token to verify"
        }
      },
      "verifyTokenCompliance(address[])": {
        "details": "Will revert if invalid - overloaded to save space in the main contract",
        "params": {
          "tokens": "- The prospective tokens to verify"
        }
      }
    },
    "title": "Factor out the weight updates",
    "version": 1
  },
  "userdoc": {
    "kind": "user",
    "methods": {
      "applyAddToken(IConfigurableRightsPool,IBPool,uint256,SmartPoolManager.NewTokenParams storage)": {
        "notice": "Add the token previously committed (in commitAddToken) to the pool"
      },
      "commitAddToken(IBPool,address,uint256,uint256,SmartPoolManager.NewTokenParams storage)": {
        "notice": "Schedule (commit) a token to be added; must call applyAddToken after a fixed         number of blocks to actually add the token"
      },
      "exitPool(IConfigurableRightsPool,IBPool,uint256,uint256[])": {
        "notice": "Exit a pool - redeem pool tokens for underlying assets"
      },
      "exitswapExternAmountOut(IConfigurableRightsPool,IBPool,address,uint256,uint256)": {
        "notice": "Exit a pool - redeem pool tokens for a specific amount of underlying assets         Asset must be present in the pool"
      },
      "exitswapPoolAmountIn(IConfigurableRightsPool,IBPool,address,uint256,uint256)": {
        "notice": "Exit a pool - redeem a specific number of pool tokens for an underlying asset         Asset must be present in the pool, and will incur an EXIT_FEE (if set to non-zero)"
      },
      "joinPool(IConfigurableRightsPool,IBPool,uint256,uint256[])": {
        "notice": "Join a pool"
      },
      "joinswapExternAmountIn(IConfigurableRightsPool,IBPool,address,uint256,uint256)": {
        "notice": "Join by swapping a fixed amount of an external token in (must be present in the pool)         System calculates the pool token amount"
      },
      "joinswapPoolAmountOut(IConfigurableRightsPool,IBPool,address,uint256,uint256)": {
        "notice": "Join by swapping an external token in (must be present in the pool)         To receive an exact amount of pool tokens out. System calculates the deposit amount"
      },
      "pokeWeights(IBPool,SmartPoolManager.GradualUpdateParams storage)": {
        "notice": "External function called to make the contract update weights according to plan"
      },
      "removeToken(IConfigurableRightsPool,IBPool,address)": {
        "notice": "Remove a token from the pool"
      },
      "updateWeight(IConfigurableRightsPool,IBPool,address,uint256)": {
        "notice": "Update the weight of an existing token"
      },
      "updateWeightsGradually(IBPool,SmartPoolManager.GradualUpdateParams storage,uint256[],uint256,uint256,uint256)": {
        "notice": "Update weights in a predetermined way, between startBlock and endBlock,         through external cals to pokeWeights"
      },
      "verifyTokenCompliance(address)": {
        "notice": "Non ERC20-conforming tokens are problematic; don't allow them in pools"
      },
      "verifyTokenCompliance(address[])": {
        "notice": "Non ERC20-conforming tokens are problematic; don't allow them in pools"
      }
    },
    "version": 1
  },
  "storageLayout": {
    "storage": [],
    "types": null
  }
}